01John                        Turlai                        Michael                       123 Elm Street, Warsaw        
020000010000000005000USD                                                                                                
020000020000000012345EUR                                                                                                
020000030000000001500PLN                                                                                                
02000004000000010000USD                                                                                                 
02000005000000020000PLN                                                                                                 
03000005000000031884                                                                                                    
